:020000040000FA
:100000000C9462000C948A000C948A000C948A0070
:100010000C948A000C948A000C948A000C948A0038
:100020000C948A000C948A000C948A000C948A0028
:100030000C948A000C948A000C948A000C948A0018
:100040000C94E0020C948A000C9450030C942A0344
:100050000C948A000C948A000C948A000C948A00F8
:100060000C948A000C948A000000000024002700F1
:100070002A0000000000250028002B0000000000DE
:1000800023002600290004040404040404040202DA
:100090000202020203030303030301020408102007
:1000A0004080010204081020010204081020000012
:1000B0000008000201000003040700000000000027
:1000C0000000820311241FBECFEFD8E0DEBFCDBFFA
:1000D00011E0A0E0B1E0E2E4F2E102C005900D928F
:1000E000AA31B107D9F721E0AAE1B1E001C01D9220
:1000F000A13FB207E1F710E0C2E6D0E004C02197CB
:10010000FE010E941909C136D107C9F70E94AF0349
:100110000C941F090C940000833081F028F4813086
:1001200099F08230A9F008958730A9F08830C9F09D
:100130008430B1F4809180008F7D03C08091800075
:100140008F7780938000089584B58F7784BD08955C
:1001500084B58F7DFBCF8091B0008F778093B00006
:1001600008958091B0008F7DF9CFCF93DF93282F32
:1001700030E0F901E255FF4F8491F901E656FF4F57
:10018000D491F901EA57FF4FC491CC23A1F081111A
:100190000E948C00EC2FF0E0EE0FFF1FE458FF4FA1
:1001A000A591B491EC91ED2381E090E009F480E019
:1001B000DF91CF91089580E090E0FACF1F93CF9325
:1001C000DF93282F30E0F901E255FF4F8491F901C8
:1001D000E656FF4FD491F901EA57FF4FC491CC2363
:1001E000A9F0162F81110E948C00EC2FF0E0EE0F89
:1001F000FF1FEE58FF4FA591B4918FB7F894EC9183
:10020000111108C0D095DE23DC938FBFDF91CF9111
:100210001F910895DE2BF8CFCF93DF9390E0FC0180
:10022000E656FF4F24918A579F4FFC018491882303
:10023000D1F090E0880F991FFC01E859FF4FA5917C
:10024000B491FC01EE58FF4FC591D49161110EC0DD
:100250009FB7F8948C91E22FE0958E238C932881A0
:10026000E223E8839FBFDF91CF9108958FB7F89481
:10027000EC91E22BEC938FBFF6CF8E3008F08E50CE
:100280008770806480937C0080917A008064809382
:100290007A0080917A0086FDFCCF80917800909161
:1002A000790008952FB7F894609124017091250189
:1002B00080912601909127012FBF0895CF92DF9260
:1002C000EF92FF920E9452016B017C010E94520149
:1002D0006C197D098E099F096A30710581059105A8
:1002E00028F461E083E00E94DE00F0CF60E083E06C
:1002F000FF90EF90DF90CF900C94DE00AF92BF9212
:10030000CF92DF92EF92FF920F931F93CF93DF93E1
:100310006C017B018B01040F151FEB015E01AE1810
:10032000BF08C017D10759F06991D601ED91FC9132
:100330000190F081E02DC6010995892B79F7C5015F
:10034000DF91CF911F910F91FF90EF90DF90CF90B1
:10035000BF90AF900895FC01538D448D252F30E060
:10036000842F90E0821B930B541710F0CF960895C2
:1003700001970895FC01918D828D981761F0A28DEF
:10038000AE0FBF2FB11D5D968C91928D9F5F9F73B5
:10039000928F90E008958FEF9FEF0895FC01918D6B
:1003A000828D981731F0828DE80FF11D858D90E0D8
:1003B00008958FEF9FEF0895FC01918D228D892F75
:1003C00090E0805C9F4F821B91098F73992708955D
:1003D00088E291E00E94DC0121E0892B09F420E011
:1003E000822F089580E090E0892B29F00E94E80197
:1003F00081110C9400000895FC01A48DA80FB92F61
:10040000B11DA35ABF4F2C91848D90E001968F733C
:100410009927848FA689B7892C93A089B1898C915B
:10042000837080648C93938D848D981306C00288AA
:10043000F389E02D80818F7D80830895EF92FF9274
:100440000F931F93CF93DF93EC0181E0888F9B8DF7
:100450008C8D98131AC0E889F989808185FF15C0B1
:100460009FB7F894EE89FF896083E889F9898081D4
:100470008370806480839FBF81E090E0DF91CF91A3
:100480001F910F91FF90EF900895F62E0B8D10E0C5
:100490000F5F1F4F0F731127E02E8C8D8E110CC034
:1004A0000FB607FCFACFE889F989808185FFF5CF7F
:1004B000CE010E94FC01F1CFEB8DEC0FFD2FF11D61
:1004C000E35AFF4FF0829FB7F8940B8FEA89FB89BC
:1004D00080818062CFCFCF93DF93EC01888D88231A
:1004E000B9F0AA89BB89E889F9898C9185FD03C097
:1004F000808186FD0DC00FB607FCF7CF8C9185FF7C
:10050000F2CF808185FFEDCFCE010E94FC01E9CFC3
:10051000DF91CF9108950F931F93CF93DF93082F0F
:10052000162FD42FC8E06D2F661F6627661F802FF9
:100530000E94DE00DD0F61E0812F0E94DE0060E09E
:10054000812F0E94DE00C15071F7DF91CF911F9182
:100550000F910895DF92EF92FF920F931F93CF9325
:10056000DF9320E0E22E21E0F22EEC018C01060F59
:10057000171FF701D080F2E0EF0EF11C6091C5016A
:100580008D2D0E94DE00499164E082E00E948B0282
:100590000E945E0161E08091C5019091C601892BA6
:1005A00009F060E08D2D0E94DE00C017D10709F729
:1005B000DF91CF911F910F91FF90EF90DF90089501
:1005C0001F920F920FB60F9211242F933F938F9388
:1005D0009F93AF93BF938091240190912501A091A7
:1005E0002601B09127013091230123E0230F2D37FD
:1005F00058F50196A11DB11D20932301809324017C
:1006000090932501A0932601B093270180911F01AB
:1006100090912001A0912101B09122010196A11D8C
:10062000B11D80931F0190932001A0932101B093ED
:100630002201BF91AF919F918F913F912F910F9088
:100640000FBE0F901F90189526E8230F0296A11D4C
:10065000B11DD2CF1F920F920FB60F9211242F937C
:100660003F934F935F936F937F938F939F93AF933A
:10067000BF93EF93FF9388E291E00E94FC01FF910A
:10068000EF91BF91AF919F918F917F916F915F910A
:100690004F913F912F910F900FBE0F901F90189583
:1006A0001F920F920FB60F9211242F938F939F9347
:1006B000EF93FF93E0913801F09139018081E0914F
:1006C0003E01F0913F0182FD1BC09081809141016C
:1006D0008F5F8F7320914201821741F0E0914101B9
:1006E000F0E0E85DFE4F958F80934101FF91EF911F
:1006F0009F918F912F910F900FBE0F901F90189583
:100700008081F4CFE8E2F1E01382128288EE93E078
:10071000A0E0B0E084839583A683B7838CE091E06A
:100720009183808385EC90E09587848784EC90E0CA
:100730009787868780EC90E0918B808B81EC90E0AE
:10074000938B828B82EC90E0958B848B86EC90E08F
:10075000978B868B118E128E138E148E0895CF93E5
:10076000DF93CDB7DEB728970FB6F894DEBF0FBE84
:10077000CDBF789484B5826084BD84B5816084BD2A
:1007800085B5826085BD85B5816085BD80916E002F
:10079000816080936E001092810080918100826060
:1007A000809381008091810081608093810080919D
:1007B00080008160809380008091B100846080938C
:1007C000B1008091B00081608093B00080917A0088
:1007D000846080937A0080917A00826080937A00AE
:1007E00080917A00816080937A0080917A0080689D
:1007F00080937A001092C100E0913801F0913901A4
:1008000082E08083E0913401F09135011082E09123
:100810003601F09137018FEC808310924001E09116
:100820003C01F0913D0196E09083E0913A01F09116
:100830003B01808180618083E0913A01F0913B012E
:10084000808188608083E0913A01F0913B01808152
:1008500080688083E0913A01F0913B0180818F7D37
:1008600080838FE38093C7019093C8018BE58093C9
:10087000C9018FE48093CA0186E68093CB018DE69F
:100880008093CC018DE78093CD0187E08093CE01EA
:100890008FE78093CF018FE68093D00187E7809325
:1008A000D40184E58093D50184E48093D60183E765
:1008B0008093D7018EE38093D1018CE58093D201A0
:1008C00088E38093D30181E090E09093C601809308
:1008D000C50182E090E09A83898383E090E09C8365
:1008E0008B8384E090E09E838D8385E090E0988701
:1008F0008F83CE0101967C015E0199E0A90EB11CA7
:10090000D7018C91B2E0EB0EF11C61E00E940C016A
:10091000AE14BF04A9F758E0A52E51E0B52E60E053
:10092000E62E61E0F62EF7018081F2E0EF0EF11C79
:1009300061E00E940C01AE14BF04A9F760E088E0FA
:100940000E940C014AE0642E712CDD24D3943AE01D
:10095000E32EF12C812C912C54018EE00E943D015C
:10096000BC01990F880B990B0E94E3079B01AC0116
:10097000C501B4010E94CF064B015C0121E0E21ADF
:10098000F10859F720E030E040E251E40E944007CE
:100990002AE038E240EA5BE30E94980820E030E079
:1009A0004AEF54E40E94400720E030E84BE356E46D
:1009B0000E9498081B012C0120921B0130921C01FF
:1009C00040921D0150921E012AE0E22EF12C812C52
:1009D000912C54018FE00E943D01BC01990F880BBE
:1009E000990B0E94E3079B01AC01C501B4010E9471
:1009F000CF064B015C0181E0E81AF10859F720921B
:100A0000E5013092E6014092E7015092E80120E0D2
:100A100030E040E251E4C501B4010E9440072AE001
:100A200038E240EA5BE30E9498082EEA37E441E6A8
:100A30005EE30E9440076093E9017093EA018093AE
:100A4000EB019093EC0188E00E94B500892B81F4C2
:100A50008091DA0181110CC00E9452016093ED0176
:100A60007093EE018093EF019093F001D092DA0140
:100A700088E00E94B5007C0191E0E916F10439F5A7
:100A80008091DA01882319F10E9452018090ED01D2
:100A90009090EE01A090EF01B090F001AB01BC018D
:100AA000481959096A097B091092DA018091DB0122
:100AB0009091DC01493E53406105710508F4A9C0DD
:100AC000029709F09FC01092DC011092DB01809028
:100AD000E5019090E601A090E701B090E801209038
:100AE000E9013090EA014090EB015090EC018091D7
:100AF000DB019091DC018130910509F4D4C008F448
:100B0000C1C0029709F4F5C0C80168EE73E00E9405
:100B10000509CB01B3010E9405099093DE01809382
:100B2000DD01C80164E670E00E940509CB01B30154
:100B30000E9405099093E0018093DF01C801B30191
:100B40000E9405099C01CB01B3010E940509909305
:100B5000E2018093E1013093E4012093E3018DED04
:100B6000882E81E0982E90E0A92E91E0B92EF12CEC
:100B7000E12C6091C5017091C6018091D80181116D
:100B8000F3C0E114F10409F0F4C080911A0181115D
:100B9000F0C085E00E94DE00D5015C90B2E0AB0EB3
:100BA000B11C6091C501852D0E94DE00D401ED913C
:100BB000FD914D01EB53FE4F428164E082E00E94C3
:100BC0008B020E945E0161E08091C5019091C60197
:100BD000892B09F060E0852D0E94DE00BFEFEB1A43
:100BE000FB0AE4E0EE16F10421F680E090E0892BA8
:100BF00009F4ADCE0E94E801882309F4A8CE0E9432
:100C00000000A5CEE2E0F0E0F093DC01E093DB0130
:100C10005ECF0097E9F0019709F059CF0E94520189
:100C20004B015C011092DC011092DB0163E070E08B
:100C300081ED91E00E94AA020E945201681979098F
:100C40008A099B09683E73408105910578F33FCF7F
:100C50000E9452014B015C01F092DC01E092DB0149
:100C600064E070E084ED91E00E94AA020E945201CB
:100C7000681979098A099B09683E734081059105C5
:100C800078F325CF2AE037ED4FE151E4C501B401F7
:100C90000E943B0787FF51C020E030E04AE754E460
:100CA000C501B40110C02AE037ED4FE151E4C201A3
:100CB000B1010E943B0787FF0EC020E030E04AE709
:100CC00054E4C201B1010E9498080E94B2078B014E
:100CD0001092D80119CF20E030E048EC52E4C20174
:100CE000B1010E9498080E94B2078B01D092D801EE
:100CF0000BCFA2019101C501B4010E9498084B01DC
:100D00005C012AE037ED4FE151E40E943B0787FD8B
:100D1000C3CF2AE037ED4FE151E4C501B4010E9491
:100D2000930818168CF421EE3AEF47EC52E4C50113
:100D3000B4010E943B0787FF07C020E030E048EC89
:100D400052E4C501B401CDCF20E030E040E251E4EF
:100D5000C501B4010E9498080E94B2078B0110924D
:100D6000D801D0921A01D0CE81E0E816F10409F43E
:100D700010CF80911A01882359F092E0E916F1040E
:100D800039F48091DB019091DC01029709F401CFE5
:100D900081E0672B09F080E0682FFBCE5058BB271D
:100DA000AA270E94E6060C9459080E944B0838F0C6
:100DB0000E94520820F039F49F3F19F426F40C9455
:100DC00048080EF4E095E7FB0C944208E92F0E94D6
:100DD0006A0858F3BA17620773078407950720F06B
:100DE00079F4A6F50C948C080EF4E0950B2EBA2F2E
:100DF000A02D0B01B90190010C01CA01A001112421
:100E0000FF27591B99F0593F50F4503E68F11A16CC
:100E1000F040A22F232F342F4427585FF3CF46955D
:100E200037952795A795F0405395C9F77EF41F167F
:100E3000BA0B620B730B840BBAF09150A1F0FF0F49
:100E4000BB1F661F771F881FC2F70EC0BA0F621F35
:100E5000731F841F48F4879577956795B795F79525
:100E60009E3F08F0B0CF9395880F08F09927EE0FBA
:100E70009795879508950E941E0808F481E00895CB
:100E80000E9454070C9459080E94520858F00E947E
:100E90004B0840F029F45F3F29F00C9442085111AF
:100EA0000C948D080C9448080E946A0868F39923F2
:100EB000B1F3552391F3951B550BBB27AA27621756
:100EC0007307840738F09F5F5F4F220F331F441F63
:100ED000AA1FA9F335D00E2E3AF0E0E832D0915097
:100EE0005040E695001CCAF72BD0FE2F29D0660F84
:100EF000771F881FBB1F261737074807AB07B0E8C7
:100F000009F0BB0B802DBF01FF2793585F4F3AF0CC
:100F10009E3F510578F00C9442080C948D085F3F79
:100F2000E4F3983ED4F3869577956795B795F79552
:100F30009F5FC9F7880F911D9695879597F908953A
:100F4000E1E0660F771F881FBB1F621773078407D6
:100F5000BA0720F0621B730B840BBA0BEE1F88F7E5
:100F6000E09508950E94720888F09F5798F0B92F75
:100F70009927B751B0F0E1F0660F771F881F991FCE
:100F80001AF0BA95C9F714C0B13091F00E948C08DC
:100F9000B1E008950C948C08672F782F8827B85FEC
:100FA00039F0B93FCCF3869577956795B395D9F726
:100FB0003EF490958095709561957F4F8F4F9F4F30
:100FC0000895E89409C097FB3EF49095809570953C
:100FD00061957F4F8F4F9F4F9923A9F0F92F96E985
:100FE000BB279395F695879577956795B795F111FA
:100FF000F8CFFAF4BB0F11F460FF1BC06F5F7F4F97
:101000008F4F9F4F16C0882311F096E911C07723A8
:1010100021F09EE8872F762F05C0662371F096E8B1
:10102000862F70E060E02AF09A95660F771F881F80
:10103000DAF7880F9695879597F90895990F000824
:10104000550FAA0BE0E8FEEF16161706E807F9079A
:10105000C0F012161306E407F50798F0621B730B35
:10106000840B950B39F40A2661F0232B242B252BB6
:1010700021F408950A2609F4A140A6958FEF811D59
:10108000811D089597F99F6780E870E060E00895FA
:101090009FEF80EC089500240A9416161706180690
:1010A0000906089500240A9412161306140605066C
:1010B0000895092E0394000C11F4882352F0BB0FFD
:1010C00040F4BF2B11F460FF04C06F5F7F4F8F4F60
:1010D0009F4F089557FD9058440F551F59F05F3F9B
:1010E00071F04795880F97FB991F61F09F3F79F04A
:1010F00087950895121613061406551FF2CF4695CC
:10110000F1DF08C0161617061806991FF1CF86954D
:101110007105610508940895E894BB276627772731
:10112000CB0197F908950E941E0808F48FEF0895E7
:101130000E94AB080C9459080E944B0838F00E949A
:10114000520820F0952311F00C9442080C944808A2
:1011500011240C948D080E946A0870F3959FC1F3C6
:10116000950F50E0551F629FF001729FBB27F00D55
:10117000B11D639FAA27F00DB11DAA1F649F6627AA
:10118000B00DA11D661F829F2227B00DA11D621FF9
:10119000739FB00DA11D621F839FA00D611D221FB3
:1011A000749F3327A00D611D231F849F600D211D97
:1011B000822F762F6A2F11249F5750409AF0F1F01A
:1011C00088234AF0EE0FFF1FBB1F661F771F881F83
:1011D00091505040A9F79E3F510580F00C94420871
:1011E0000C948D085F3FE4F3983ED4F38695779591
:1011F0006795B795F795E7959F5FC1F7FE2B880F29
:10120000911D9695879597F90895AA1BBB1B51E1EF
:1012100007C0AA1FBB1FA617B70710F0A61BB70B66
:10122000881F991F5A95A9F780959095BC01CD010B
:101230000895EE0FFF1F0590F491E02D0994F894A6
:10124000FFCF09000A000B000C00000000001E0286
:0C1250007E01AB016B02DC01BA01CE0193
:107E0000112484B714BE81FFF0D085E080938100F7
:107E100082E08093C00088E18093C10086E0809377
:107E2000C20080E18093C4008EE0C9D0259A86E02C
:107E300020E33CEF91E0309385002093840096BBD3
:107E4000B09BFECF1D9AA8958150A9F7CC24DD24C4
:107E500088248394B5E0AB2EA1E19A2EF3E0BF2EE7
:107E6000A2D0813461F49FD0082FAFD0023811F036
:107E7000013811F484E001C083E08DD089C08234E0
:107E800011F484E103C0853419F485E0A6D080C0E4
:107E9000853579F488D0E82EFF2485D0082F10E0AE
:107EA000102F00270E291F29000F111F8ED06801E7
:107EB0006FC0863521F484E090D080E0DECF843638
:107EC00009F040C070D06FD0082F6DD080E0C81688
:107ED00080E7D80618F4F601B7BEE895C0E0D1E017
:107EE00062D089930C17E1F7F0E0CF16F0E7DF06D8
:107EF00018F0F601B7BEE89568D007B600FCFDCFD4
:107F0000A601A0E0B1E02C9130E011968C91119780
:107F100090E0982F8827822B932B1296FA010C0160
:107F200087BEE89511244E5F5F4FF1E0A038BF0790
:107F300051F7F601A7BEE89507B600FCFDCF97BE46
:107F4000E89526C08437B1F42ED02DD0F82E2BD052
:107F50003CD0F601EF2C8F010F5F1F4F84911BD097
:107F6000EA94F801C1F70894C11CD11CFA94CF0C13
:107F7000D11C0EC0853739F428D08EE10CD085E9AC
:107F80000AD08FE07ACF813511F488E018D01DD067
:107F900080E101D065CF982F8091C00085FFFCCF94
:107FA0009093C60008958091C00087FFFCCF809118
:107FB000C00084FD01C0A8958091C6000895E0E648
:107FC000F0E098E1908380830895EDDF803219F02E
:107FD00088E0F5DFFFCF84E1DECF1F93182FE3DFCA
:107FE0001150E9F7F2DF1F91089580E0E8DFEE27F6
:047FF000FF270994CA
:027FFE00040479
:00000001FF
