:100000000C9462000C948A000C948A000C948A0070
:100010000C948A000C948A000C948A000C948A0038
:100020000C948A000C948A000C948A000C948A0028
:100030000C948A000C948A000C948A000C948A0018
:100040000C9436030C948A000C94A6030C94800341
:100050000C948A000C948A000C948A000C948A00F8
:100060000C948A000C948A000000000024002700F1
:100070002A0000000000250028002B0000000000DE
:1000800023002600290004040404040404040202DA
:100090000202020203030303030301020408102007
:1000A0004080010204081020010204081020000012
:1000B0000008000201000003040700000000000027
:1000C0000000D80311241FBECFEFD8E0DEBFCDBFA4
:1000D00011E0A0E0B1E0EAE9F1E102C005900D9283
:1000E000A636B107D9F722E0A6E6B1E001C01D921D
:1000F000AD33B207E1F710E0C2E6D0E004C02197CB
:10010000FE010E94C508C136D107C9F70E94050447
:100110000C94CB080C940000833081F028F48130DB
:1001200099F08230A9F008958730A9F08830C9F09D
:100130008430B1F4809180008F7D03C08091800075
:100140008F7780938000089584B58F7784BD08955C
:1001500084B58F7DFBCF8091B0008F778093B00006
:1001600008958091B0008F7DF9CFCF93DF93282F32
:1001700030E0F901E255FF4F8491F901E656FF4F57
:10018000D491F901EA57FF4FC491CC23A1F081111A
:100190000E948C00EC2FF0E0EE0FFF1FE458FF4FA1
:1001A000A591B491EC91ED2381E090E009F480E019
:1001B000DF91CF91089580E090E0FACF1F93CF9325
:1001C000DF93282F30E0F901E255FF4F8491F901C8
:1001D000E656FF4FD491F901EA57FF4FC491CC2363
:1001E000A9F0162F81110E948C00EC2FF0E0EE0F89
:1001F000FF1FEE58FF4FA591B4918FB7F894EC9183
:10020000111108C0D095DE23DC938FBFDF91CF9111
:100210001F910895DE2BF8CFCF93DF9390E0FC0180
:10022000E656FF4F24918A579F4FFC018491882303
:10023000D1F090E0880F991FFC01E859FF4FA5917C
:10024000B491FC01EE58FF4FC591D49161110EC0DD
:100250009FB7F8948C91E22FE0958E238C932881A0
:10026000E223E8839FBFDF91CF9108958FB7F89481
:10027000EC91E22BEC938FBFF6CF8E3008F08E50CE
:100280008770806480937C0080917A008064809382
:100290007A0080917A0086FDFCCF80917800909161
:1002A000790008953FB7F8948091700190917101A1
:1002B000A0917201B091730126B5A89B05C02F3F94
:1002C00019F00196A11DB11D3FBFBA2FA92F982F7C
:1002D0008827BC01CD01620F711D811D911D42E077
:1002E000660F771F881F991F4A95D1F708958F923F
:1002F0009F92AF92BF92CF92DF92EF92FF926C01EA
:1003000061E083E00E94DE000D2C000CEE08FF0887
:100310000E9452014B015C010E9452016819790947
:100320008A099B09683E734081059105A8F321E085
:10033000C21AD108E108F10888EE880E83E0981E01
:10034000A11CB11CC114D104E104F10429F760E03F
:1003500083E0FF90EF90DF90CF90BF90AF909F90A1
:100360008F900C94DE002FB7F89460916C0170911F
:100370006D0180916E0190916F012FBF0895AF9232
:10038000BF92CF92DF92EF92FF920F931F93CF9382
:10039000DF936C017B018B01040F151FEB015E01E4
:1003A000AE18BF08C017D10759F06991D601ED9179
:1003B000FC910190F081E02DC6010995892B79F718
:1003C000C501DF91CF911F910F91FF90EF90DF90CA
:1003D000CF90BF90AF900895FC01538D448D252F91
:1003E00030E0842F90E0821B930B541710F0CF96CF
:1003F000089501970895FC01918D828D981761F001
:10040000A28DAE0FBF2FB11D5D968C91928D9F5F17
:100410009F73928F90E008958FEF9FEF0895FC01F6
:10042000918D828D981731F0828DE80FF11D858DA9
:1004300090E008958FEF9FEF0895FC01918D228D3C
:10044000892F90E0805C9F4F821B91098F739927C1
:10045000089584E791E00E941D0221E0892B09F4B0
:1004600020E0822F089580E090E0892B29F00E94FF
:10047000290281110C9400000895FC01A48DA80F9D
:10048000B92FB11DA35ABF4F2C91848D90E00196D6
:100490008F739927848FA689B7892C93A089B189F6
:1004A0008C91837080648C93938D848D981306C097
:1004B0000288F389E02D80818F7D80830895EF92FB
:1004C000FF920F931F93CF93DF93EC0181E0888F0E
:1004D0009B8D8C8D98131AC0E889F989808185FFDE
:1004E00015C09FB7F894EE89FF896083E889F98980
:1004F00080818370806480839FBF81E090E0DF9182
:10050000CF911F910F91FF90EF900895F62E0B8DD4
:1005100010E00F5F1F4F0F731127E02E8C8D8E118F
:100520000CC00FB607FCFACFE889F989808185FFF6
:10053000F5CFCE010E943D02F1CFEB8DEC0FFD2FE8
:10054000F11DE35AFF4FF0829FB7F8940B8FEA89B1
:10055000FB8980818062CFCFCF93DF93EC01888DC0
:100560008823B9F0AA89BB89E889F9898C9185FD2E
:1005700003C0808186FD0DC00FB607FCF7CF8C91BC
:1005800085FFF2CF808185FFEDCFCE010E943D0235
:10059000E9CFDF91CF9108950F931F93CF93DF930E
:1005A000082F162FD42FC8E06D2F661F6627661FF1
:1005B000802F0E94DE00DD0F61E0812F0E94DE00AF
:1005C00060E0812F0E94DE00C15071F7DF91CF9172
:1005D0001F910F910895CF92DF92FF920F931F9377
:1005E000CF93DF9301E111E0EC016C0182E0C80ED2
:1005F000D11CF801F0800E5F1F4F61E08F2D0E942B
:10060000DE00499164E082E00E94CC028EE190E03D
:100610000E94770160E08F2D0E94DE00CC15DD0581
:1006200041F7DF91CF911F910F91FF90DF90CF9015
:100630000895CF93DF93FC0101900020E9F73197F3
:10064000AF01481B590BBC0184E791E00E94BF0138
:10065000EC0142E050E06BE271E084E791E00E943F
:10066000BF018C0F9D1FDF91CF9108951F920F92B4
:100670000FB60F9211242F933F938F939F93AF93B5
:10068000BF9380916C0190916D01A0916E01B0912A
:100690006F0130916B0123E0230F2D3758F5019640
:1006A000A11DB11D20936B0180936C0190936D018E
:1006B000A0936E01B0936F018091700190917101D0
:1006C000A0917201B09173010196A11DB11D80939B
:1006D000700190937101A0937201B0937301BF9167
:1006E000AF919F918F913F912F910F900FBE0F90DF
:1006F0001F90189526E8230F0296A11DB11DD2CF99
:100700001F920F920FB60F9211242F933F934F9386
:100710005F936F937F938F939F93AF93BF93EF9369
:10072000FF9384E791E00E943D02FF91EF91BF911A
:10073000AF919F918F917F916F915F914F913F9179
:100740002F910F900FBE0F901F9018951F920F9230
:100750000FB60F9211242F938F939F93EF93FF93D4
:10076000E0918401F09185018081E0918A01F0910E
:100770008B0182FD1BC0908180918D018F5F8F73F3
:1007800020918E01821741F0E0918D01F0E0EC584C
:10079000FE4F958F80938D01FF91EF919F918F91E7
:1007A0002F910F900FBE0F901F9018958081F4CF5E
:1007B000E4E7F1E01382128288EE93E0A0E0B0E07B
:1007C00084839583A683B7838DE191E091838083B1
:1007D00085EC90E09587848784EC90E09787868706
:1007E00080EC90E0918B808B81EC90E0938B828BFE
:1007F00082EC90E0958B848B86EC90E0978B868BD7
:10080000118E128E138E148E0895CF93DF93CDB771
:10081000DEB728970FB6F894DEBF0FBECDBF789431
:1008200084B5826084BD84B5816084BD85B58260F5
:1008300085BD85B5816085BD80916E0081608093A6
:100840006E0010928100809181008260809381000F
:10085000809181008160809381008091800081601F
:10086000809380008091B10084608093B10080917A
:10087000B00081608093B00080917A0084608093A2
:100880007A0080917A00826080937A0080917A0069
:10089000816080937A0080917A00806880937A00EA
:1008A0001092C100E0918401F091850182E0808383
:1008B000E0918001F09181011082E0918201F0913C
:1008C00083018FEC808310928C01E0918801F0917C
:1008D000890186E08083E0918601F0918701808123
:1008E00080618083E0918601F0918701808188603A
:1008F0008083E0918601F091870180818068808308
:10090000E0918601F091870180818F7D808382E074
:1009100090E09A83898383E090E09C838B8384E0DA
:1009200090E09E838D8385E090E098878F83CE0151
:1009300001967C016E0199E0C90ED11CD7018C9102
:10094000B2E0EB0EF11C61E00E940C01CE14DF045A
:10095000A9F769E1C62E61E0D62E71E1E72E71E0BC
:10096000F72EF7018081F2E0EF0EF11C61E00E94AA
:100970000C01CE14DF04A9F760E088E00E940C01AE
:10098000412C512C40E8642E4FE3742E5AE0C52EC2
:10099000D12C222423943AE0E32EF12C812C912CAB
:1009A00054018EE00E943D01BC01990F880B990B08
:1009B0000E9494079B01AC01C501B4010E9480060E
:1009C0004B015C0121E0E21AF10859F720E030E028
:1009D00040E251E40E94F1062AE038E240EA5BE39B
:1009E0000E94440820E030E04AEF54E40E94F106FF
:1009F00020E030E84BE356E40E9444084B015C01E0
:100A00008092670190926801A0926901B0926A0198
:100A10002AE0E22EF12C8FE00E943D0181E0E81AED
:100A2000F108C9F78092210290922202A09223023B
:100A3000B092240240922502509226026092270230
:100A40007092280288E00E94B500892B81F4809181
:100A5000660181110CC00E94B30160932D02709356
:100A60002E0280932F02909330022092660188E03C
:100A70000E94B5007C0191E0E916F10459F58091DE
:100A80006601882339F10E94B30180902D02909075
:100A90002E02A0902F02B0903002AB01BC01481989
:100AA00059096A097B091092660180911702909199
:100AB0001802493E53406105710508F492C002973F
:100AC00009F086C010921802109217028EE291E08F
:100AD0000E941903809117029091180281309105AC
:100AE00009F4D4C008F4B2C0029709F4EAC0C801FE
:100AF00068EE73E00E94B108CB01B6010E94B10814
:100B000090931A0280931902C80164E670E00E9473
:100B1000B108CB01B6010E94B10890931C028093EA
:100B20001B02C801B6010E94B1089C01CB01B601AD
:100B30000E94B10890931E0280931D023093200200
:100B400020931F0289E1882E82E0982E91E1A92E40
:100B500091E0B92EF12CE12C809113028111C8C0D3
:100B6000E114F10409F0C9C061E085E00E94DE00F3
:100B7000D5013C90B2E0AB0EB11C61E0832D0E9428
:100B8000DE00D401ED91FD914D01E95FFE4F408102
:100B900064E082E00E94CC0284E190E00E94770150
:100BA00060E0832D0E94DE00BFEFEB1AFB0AE4E059
:100BB000EE16F10489F680E090E0892B09F4EBCE83
:100BC0000E942902882309F4E6CE0E940000E3CEA9
:100BD000E2E0F0E0F0931802E093170289E491E07C
:100BE00077CF0097D9F0019709F074CF0E94B30135
:100BF0004B015C01109218021092170280E091E004
:100C00000E94EB020E94B301681979098A099B09C5
:100C10006C3D75408105910588F35CCF0E94B3015E
:100C20004B015C01F0921802E092170283E091E020
:100C30000E94EB020E94B301681979098A099B0995
:100C40006C3D75408105910588F344CF8090210269
:100C500090902202A0902302B09024022AE037ED67
:100C60004FE151E4C501B4010E94EC0687FF1BC0AF
:100C700020E030E04AE754E4C501B4010E94440892
:100C80000E9463078B011092130231CF80902502DE
:100C900090902602A0902702B090280220E030E039
:100CA00040E85FE3DFCF20E030E048EC52E4C501EC
:100CB000B4010E9444080E9463078B012092130232
:100CC00016CF2091210230912202409123025091AF
:100CD0002402609125027091260280912702909152
:100CE00028020E94440820E030E048EC52E4C6CFDD
:100CF00081E0E816F10409F437CF60E036CF5058B0
:100D0000BB27AA270E9497060C940A080E94FC079A
:100D100038F00E94030820F039F49F3F19F426F4BC
:100D20000C94F9070EF4E095E7FB0C94F307E92F18
:100D30000E941B0858F3BA176207730784079507C8
:100D400020F079F4A6F50C943D080EF4E0950B2EF6
:100D5000BA2FA02D0B01B90190010C01CA01A0010D
:100D60001124FF27591B99F0593F50F4503E68F168
:100D70001A16F040A22F232F342F4427585FF3CFA9
:100D8000469537952795A795F0405395C9F77EF47A
:100D90001F16BA0B620B730B840BBAF09150A1F0C3
:100DA000FF0FBB1F661F771F881FC2F70EC0BA0F49
:100DB000621F731F841F48F4879577956795B795D1
:100DC000F7959E3F08F0B0CF9395880F08F09927CC
:100DD000EE0F9795879508950E94CF0708F481E05C
:100DE00008950E9405070C940A080E94030858F011
:100DF0000E94FC0740F029F45F3F29F00C94F307B0
:100E000051110C943E080C94F9070E941B0868F3DA
:100E10009923B1F3552391F3951B550BBB27AA27B3
:100E200062177307840738F09F5F5F4F220F331FED
:100E3000441FAA1FA9F335D00E2E3AF0E0E832D0B5
:100E400091505040E695001CCAF72BD0FE2F29D0B8
:100E5000660F771F881FBB1F261737074807AB078A
:100E6000B0E809F0BB0B802DBF01FF2793585F4FFF
:100E70003AF09E3F510578F00C94F3070C943E082D
:100E80005F3FE4F3983ED4F3869577956795B795E1
:100E9000F7959F5FC9F7880F911D9695879597F9EC
:100EA0000895E1E0660F771F881FBB1F6217730765
:100EB0008407BA0720F0621B730B840BBA0BEE1F7A
:100EC00088F7E09508950E94230888F09F5798F0CE
:100ED000B92F9927B751B0F0E1F0660F771F881F3F
:100EE000991F1AF0BA95C9F714C0B13091F00E9459
:100EF0003D08B1E008950C943D08672F782F8827AE
:100F0000B85F39F0B93FCCF3869577956795B3957F
:100F1000D9F73EF490958095709561957F4F8F4FEE
:100F20009F4F0895E89409C097FB3EF490958095F3
:100F3000709561957F4F8F4F9F4F9923A9F0F92F9F
:100F400096E9BB279395F695879577956795B7951D
:100F5000F111F8CFFAF4BB0F11F460FF1BC06F5F03
:100F60007F4F8F4F9F4F16C0882311F096E911C015
:100F7000772321F09EE8872F762F05C0662371F036
:100F800096E8862F70E060E02AF09A95660F771F4A
:100F9000881FDAF7880F9695879597F90895990F26
:100FA0000008550FAA0BE0E8FEEF16161706E80733
:100FB000F907C0F012161306E407F50798F0621B54
:100FC000730B840B950B39F40A2661F0232B242B29
:100FD000252B21F408950A2609F4A140A6958FEF48
:100FE000811D811D089597F99F6780E870E060E09A
:100FF00008959FEF80EC089500240A9416161706B2
:1010000018060906089500240A94121613061406F9
:1010100005060895092E0394000C11F4882352F05C
:10102000BB0F40F4BF2B11F460FF04C06F5F7F4F14
:101030008F4F9F4F089557FD9058440F551F59F0FB
:101040005F3F71F04795880F97FB991F61F09F3FB5
:1010500079F087950895121613061406551FF2CFDE
:101060004695F1DF08C0161617061806991FF1CF2E
:1010700086957105610508940895E894BB27662755
:101080007727CB0197F908950E9457080C940A0816
:101090000E94FC0738F00E94030820F0952311F00D
:1010A0000C94F3070C94F90711240C943E080E9449
:1010B0001B0870F3959FC1F3950F50E0551F629F79
:1010C000F001729FBB27F00DB11D639FAA27F00DA1
:1010D000B11DAA1F649F6627B00DA11D661F829FC8
:1010E0002227B00DA11D621F739FB00DA11D621FAD
:1010F000839FA00D611D221F749F3327A00D611DCA
:10110000231F849F600D211D822F762F6A2F1124AB
:101110009F5750409AF0F1F088234AF0EE0FFF1FDE
:10112000BB1F661F771F881F91505040A9F79E3F35
:10113000510580F00C94F3070C943E085F3FE4F3F4
:10114000983ED4F3869577956795B795F795E7958B
:101150009F5FC1F7FE2B880F911D9695879597F994
:101160000895AA1BBB1B51E107C0AA1FBB1FA617EE
:10117000B70710F0A61BB70B881F991F5A95A9F740
:1011800080959095BC01CD010895EE0FFF1F05904D
:0A119000F491E02D0994F894FFCFCC
:10119A003E5C38775444733F065B4F666D7D077F2C
:1011AA006F09000A000B000C00000000005F02BF7C
:1011BA0001EC01AC021D02FB010F020D0A005245AF
:1011CA007475726E20666F726D20574154545320A5
:1011DA00546F20564F4C5453004D4F56452046529B
:1011EA004F4D20574154484556455220544F205799
:0611FA00415454530000B3
:00000001FF
